:020000040400F6
:1000100000000000000000000000000001000400DB
:10002000815C3A6900000000000000000000000050
:1000300000000000000000000000000000000000C0
:1000400000000000000000000000000000000000B0
:10005000000000000000000000D98E020000000037
:100060000000000000000000000000000000000090
:100070000000000000000000000000000000000080
:10010000E0FF0120BD94040461990404F9A30404F0
:10011000F8A30404F8A30404F8A3040400000000F6
:1001200000000000000000000000000081920404B4
:10013000F8A30404000000001FD105043DD105040C
:1001400005CD050423CD050441CD05045FCD05048F
:100150007DCD05049BCD0504B9CD0504D7CD05049F
:10016000F5CD050413CE050431CE05044FCE0504AC
:100170006DCE05048BCE0504A9CE0504C7CE0504BB
:10018000E5CE050403CF050421CF05043FCF0504C8
:100190005DCF05047BCF050499CF0504B7CF0504D7
:1001A000D5CF0504F3CF050411D005042FD00504E5
:1001B0004DD005046BD0050489D00504A7D00504F3
:0C01C000C5D00504E3D0050401D10504FE
:1001D00010B5054C237833B9044B13B10448AFF381
:1001E00000800123237010BD20A500200000000026
:1001F000286D070408B5034B1BB103490348AFF34F
:10020000008008BD0000000024A50020286D070420
:10021000EC46A0E8F00FA0E80050EFF3148CC0F813
:1002200000C04FF000007047002908BF0131B0E85E
:10023000F00FB0E80050026892F0020F0CBF8CF390
:1002400009888CF3088882F314880800704700003E
:1002500053B94AB9002908BF00281CBF4FF0FF312D
:100260004FF0FF3000F06CB9ADF1080C6DE904CE31
:1002700000F006F8DDF804E0DDE9022304B0704781
:100280002DE9F047089E0D4604468E46002B40F0AF
:1002900082808A42174646D9B2FA82F24AB1C2F146
:1002A000200105FA02F320FA01F1974041EA030E1A
:1002B00094404FEA1748230CBEFBF8FCB9B208FB88
:1002C0001CEE43EA0E430CFB01F098420AD9FB18DE
:1002D0000CF1FF3580F01681984240F21381ACF1A9
:1002E000020C3B441B1AA4B2B3FBF8F008FB10331A
:1002F00044EA034400FB01F1A14209D93C1900F191
:10030000FF3380F00181A14240F2FE8002383C447C
:10031000641A40EA0C4000211EB1D4400023C6E913
:100320000043BDE8F08702B9FFDEB2FA82F2002A8C
:100330004FD1CB1B4FEA174E1FFA87F80121B3FBB1
:10034000FEFC250C0EFB1C3345EA034508FB0CF3B1
:10035000AB4207D97D190CF1FF3002D2AB4200F25B
:10036000E7808446ED1AA3B2B5FBFEF00EFB1055F4
:1003700043EA054408FB00F8A04507D93C1900F101
:10038000FF3302D2A04500F2D7801846A4EB080440
:1003900040EA0C40C0E78B4208D9002E00F0AF8045
:1003A0000021C6E900050846BDE8F087B3FA83F1ED
:1003B00000294BD1AB4202D3824200F2B780841AAB
:1003C00065EB030301209E46002EAAD0C6E9004E2D
:1003D000A7E7C2F1200C01FA02F3974020FA0CF0D3
:1003E0004FEA174E21FA0CFC1843BCFBFEF1050C3A
:1003F0000EFB11CC1FFA87F845EA0C4501FB08F308
:10040000AB4204FA02F409D97D1901F1FF3C80F0F6
:100410008B80AB4240F2888002393D44EB1A85B2B2
:10042000B3FBFEF00EFB103345EA034500FB08F377
:10043000AB4207D97D1900F1FF3C71D2AB426FD9B5
:1004400002383D44EB1A40EA014178E7C1F1200C43
:100450008B4022FA0CF71F4320FA0CF405FA01F343
:100460004FEA174E25FA0CF51C43230CB5FBFEF999
:100470001FFA87F80EFB195543EA054509FB08FAF0
:10048000AA4502FA01F200FA01F308D97D1909F12F
:10049000FF3047D2AA4545D9A9F102093D44A5EB51
:1004A0000A05A4B2B5FBFEF00EFB105544EA054464
:1004B00000FB08F8A04507D93C1900F1FF352DD203
:1004C000A0452BD902383C4440EA0940A4EB08047B
:1004D000A0FB02894C45C6464D4619D316D05EB1E5
:1004E000B3EB0E0264EB050404FA0CFCCA404CEAC0
:1004F0000202CC40C6E900240021BDE8F087314665
:1005000030460EE7AC46EDE6184601E74345E6D235
:10051000B8EB020E69EB07050138E0E72846D3E7A0
:1005200060468FE78146BAE7614677E708464BE7C2
:10053000ACF1020C3D4415E702383C4426E700BF0D
:10054000704700BF00000000000000000000000035
:1005500001F0FF01102A2BDB10F0070F08D010F874
:10056000013B013A8B422DD010F0070F42B3F6D178
:10057000F0B441EA012141EA014122F007047FF091
:1005800000070023F0E80256083C85EA010586EAE8
:10059000010685FA47F5A3FA87F586FA47F6A5FA24
:1005A00087F68EB9EED1F0BC01F0FF0102F0070230
:1005B00032B110F8013B013A83EA010313B1F8D1DB
:1005C0000020704701387047002D06BF35460338BC
:1005D000073815F0010F07D1013015F4807F02BFF5
:1005E000013015F4C03F0130F0BC0138704700BF46
:1005F00010F8012B11F8013B012A28BF9A42F7D0CD
:10060000D01A7047034613F8012B002AFBD1181AA1
:100610000138704708B501467F2202486BF0E7F9C0
:1006200008BD00BFB4CE002070B5A0B0394812F0AC
:1006300007F908B920B070BD374D284611F0A2FF68
:100640003422002168466AF00FFD2C2200210DA8FB
:100650006AF00AFD183D284612F02CF815F0C6FC89
:1006600003460DAC006859689A68DB680FC42846D9
:1006700012F020F815F021FA044600E06469C4B1D4
:100680001CAD20686168A268E3680FC51CA918A8A2
:1006900010F087FEA37C13F0020FEFD018A810F023
:1006A000FFFE0028EAD00DAD20686168A268E3680B
:1006B0000FC5184D284611F0FDFF002115F0D8FE9A
:1006C000044611A9154815F051FA45F64733ADF81F
:1006D0005630134E3046FFF795FF82B23146204622
:1006E00015F035FB284611F0E5FF0DAB22466946B3
:1006F00015F0E4FE054648B144B1204615F01BFB59
:100700002B46084A0121002011F095F8024811F00B
:1007100040FF8FE77C1601209416012040E4060478
:10072000B4CE002048E4060410B50E4C2246022147
:10073000002011F080F80C4A0221002011F07BF813
:1007400022460221002011F076F8084800F0F0F867
:1007500000B910BD064A0121002011F06CF84FF0DD
:10076000FF30F6E760E4060480E4060440CF002092
:10077000A0E4060410B50021084610F0B7FF98BBAE
:10078000294A0221002011F056F8284811F0DEFD18
:10079000044688BB264A0221002011F04CF8254867
:1007A00012F088FC044668BB0121224812F01CF9B3
:1007B000044668BB204A0221002011F03CF81F4883
:1007C00011F0C0FE044648BB1D4A0221002011F072
:1007D00032F8164811F07AFD044658B1194A012141
:1007E000002011F028F805E00446174A01210020F6
:1007F00011F021F8204610BD144A0121002011F00B
:100800001AF8F7E7124A0121002011F014F8F1E775
:10081000104A0121002011F00EF8EBE70E4A0121E9
:10082000002011F008F8E5E7DCE40604D815012003
:1008300014E506047C16012090E5060494160120B8
:10084000D8E5060400E60604BCE40604ECE406046D
:1008500034E5060460E50604ACE5060408B549F095
:10086000A1F9002802DBFFF785FF08B1002008BDD1
:10087000FFF75AFF0028F9DB47F098FDF6E708B5C7
:1008800003680878984708BD012A03D0022A03D0DC
:10089000002070470160FBE70B680360F8E7000089
:1008A00008B510B1012805D008BD054A022110F095
:1008B000C2FFF9E7034A0221002010F0BCFFF3E772
:1008C0002CE606043CE6060410B584B00446038812
:1008D00023B12388022B0FD004B010BD134800F0C1
:1008E0004DFB38B101210022009213460F4800F061
:1008F00085FBEEE70021F6E76379002BECD00023BF
:100900008DF80F30094800F03EFB7F280CD07F2384
:100910008DF80F300DF10F03009301230022022107
:10092000024800F06BFBD7E70123F1E748CF002036
:1009300000B583B0002210210A2047F00DF80E4BBD
:10094000186080B10D4B01930123009300234FF4F5
:1009500000720B490B4847F009FC012809D100201F
:1009600003B05DF804FB084A012110F064FF07485A
:10097000F6E70648F4E700BF34CF002038CF002068
:1009800070E60604D50D00044CE606040B093D0094
:1009900010B5044602460349034812F0CFFC002379
:1009A000A37010BD0D0C000480150120F8B504469D
:1009B0000D460E4F0E4E02463946304612F0BEFC32
:1009C00023463A462946304612F0D8FC034608B979
:1009D0000122A27003B9F8BD184610F0D5FE0346F7
:1009E000044A0121002010F026FFF4E70D0C00045A
:1009F0008015012074E606040388012B44D110B54C
:100A0000224B9B7813B1214A527852B11BB11F4A35
:100A10005278012A17D01BB11C4B5B78022B2CD0CB
:100A200010BD1B4A0221002010F005FF194A0221C7
:100A3000002010F000FF15480123437040F6B83144
:100A4000FFF7B4FFECE740F6B833134A0221002069
:100A500010F0F1FE0D4C40F6B8312046FFF7A6FF2E
:100A6000022363700021012049F0C0FA4FF4FA72AA
:100A70001146012049F016FBD2E7044B00225A70C0
:100A8000064811F04DF9CBE7704700BF40CF00207A
:100A90008CE60604B8E60604D8E60604D015012064
:100AA00038B50379042B12D14379012B10D0254B93
:100AB0009B7813B1234A5278DAB11BB1214A52789C
:100AC000012A21D01BB11F4B5B78022B2ED038BDE1
:100AD0001C4B9B78002BFAD11A4B5B78002BF6D17C
:100AE000184C40F2DC512046FFF760FF0023637092
:100AF000EDE7144C2046FFF74BFF00206070124AD0
:100B0000012110F098FEE2E70E4D2846FFF740FF66
:100B100000246C700D4812F045F810F035FE0346C5
:100B20000B4A0221204610F086FED0E7054C2046F5
:100B3000FFF72EFF00206070064A022110F07BFEB6
:100B4000C5E700BF40CF002018E706047C1601204F
:100B500044E7060460E7060408B5074B186820B1AF
:100B60000023012246F01AFF00B108BD034A01210B
:100B700010F061FEF9E700BF34CF002080E70604E3
:100B800030B587B004460D46009103461B4A02214A
:100B9000002010F050FEE31EDBB2012B00D974B927
:100BA0000023029303930493ADF808308DF80C40B2
:100BB0008DF80D50032C04D064B1042C14D007B070
:100BC00030BD002DF8D00E4B059302A90D48FFF75C
:100BD000C3FFF4E70223ADF80830094B059302A9DF
:100BE0000848FFF7B9FFEAE70223ADF80830064BE3
:100BF000059302A90348FFF7AFFFE0E7B0E706045B
:100C0000C908000440CF0020A10A000400B585B047
:100C10000123ADF800300191044B03936946044869
:100C2000FFF79AFF05B05DF804FB00BFF909000467
:100C300040CF002008B5CB6813B10846984708BDDF
:100C4000024A0121002010F0F6FDF8E7CCE7060487
:100C500000B585B01C4800F091F980F001008DF8D6
:100C60000F00102301930DF10F0300934023002286
:100C70000621012009F0A3FBC0B9144A022100207B
:100C800010F0D9FD104800F07EF98DF80F00082112
:100C900001910DF10F03009340230022012009F080
:100CA0008EFB034648B905B05DF804FB0346084ACD
:100CB0000121002010F0BFFDDFE7064A01210020DE
:100CC00010F0B9FDEFE700BF48CF002014E806049C
:100CD000FCE7060428E8060410B528B1012808D06E
:100CE0000A4BDB785BB910BD094A022110F0A3FD65
:100CF000F6E7084A0221002010F09DFDF0E7034CC2
:100D00002046FFF7A5FF0023E370ECE740CF00206B
:100D100040E8060464E806040023836021B1016012
:100D2000024BC360024B8360704700BF7F08000422
:100D30008908000430B589B004461E4B1E4A0221C2
:100D4000002010F078FD1D4800F012F9054650BB58
:100D50001B496846FFF7E0FF1A4904A8FFF7DCFFCC
:100D600004AA6946154800F0BAF9069B1BB1032294
:100D700004A908469847029B1BB1032269466846AE
:100D80009847114849F0C0F9002014F02DFD204685
:100D9000FFF75EFF0D4810F039FF022014F05AF8FB
:100DA000284609B030BD0A4A0121002010F043FD59
:100DB000F6E700BF88E8060494E8060448CF002060
:100DC000A1080004D90C0004810B0004D0150120F7
:100DD000B4E806042DE9F04385B04448FFF7AAFFC4
:100DE00050B9434A0221002010F025FD4148FFF789
:100DF00011FC0026002775E03F4A0121002010F079
:100E00001AFDEEE73D4811F0D4F9C0B9374B5B78D5
:100E1000022B35D03A4B1B78002B2DD1394B1B7848
:100E20001BB1394B1B78002B4CD1384B1B78002B56
:100E30004FD064221146012049F034F920E0344EAD
:100E4000304611F0A5FC2F4B1870304611F053FCC2
:100E50002D4B18702F4E304610F09EFF003818BFF3
:100E600001202A4B1870337803F00103244A1370D1
:100E7000224811F0A8F9C9E70121084649F0B6F85F
:100E800012F0B4FA06460F46234B18EB03044FF05A
:100E9000000349EB03058D4208BF844220D30A2298
:100EA00069461E4B186846F0F9FE0128AAD169462A
:100EB0000E48FFF7BFFE00226946184B186846F03F
:100EC000EDFEF2E7322240F2B631012049F0EAF8B5
:100ED000D6E740F2B6323221012049F0E3F8CFE7FD
:100EE000FFF7A2FBB046B946D9E700BF40CF0020CC
:100EF000E8E80604FCE80604D0E80604D81501205A
:100F00003FCF00203ECF00203CCF00203DCF00202F
:100F10007C160120D4150120404B4C0034CF00201A
:100F200010B50446C3691BB114300322014698472B
:100F3000E3681BB1201D032201469847204610BDDF
:100F4000012800D0704708B54FF6FF73994200D0D2
:100F500008BD04480023C360C361034A034969F024
:100F6000D0FDF5E748CF002020A20020210F00048B
:100F7000012383704023C370002070478078B0FA4B
:100F800080F040097047C0787047000010B582B00B
:100F90000446C37800938378084A0221002010F0A9
:100FA0004AFCE0780246014649F0ECF8A078B0FA35
:100FB00080F0400949F0C2F802B010BD24E90604EF
:100FC00008B5C170FFF7E2FF08BD08B521B10023E5
:100FD0008370FFF7DBFF08BD01238370F9E700B5DD
:100FE00083B08DF80710836833B1C3680DF1070132
:100FF000984703B05DF804FB69F0B9FD70B505468C
:101000000C46012917D002291BD029B1284A0221F8
:10101000002010F010FC04E0264A0221002010F00D
:101020000AFCAB78012B12D00BB9012C31D0022C69
:1010300027D0002070BD204A0221002010F0FBFBC9
:10104000EFE71E4A0221002010F0F5FBE9E7002C33
:10105000EAD12646EB681BB12146281DFFF7BFFFEA
:10106000022C1AD0B6FA86F149092846FFF7ADFFDF
:10107000EB69D3B1214605F11400FFF7B0FF012061
:10108000D8E7049B1B78EA7893420CD01BB9012661
:10109000E0E72646DEE70026DCE7049B19782846D1
:1010A000FFF78EFFE4E70020C4E70120C2E700BF9E
:1010B000C0E9060438E9060464E9060490E9060478
:1010C00038B50446002383608B6833B10D46022295
:1010D0009847EB68E360AB68A360204638BDF0B585
:1010E0008BB004461746051D06AE3046FFF7E8FFF5
:1010F0006B4696E8030083E8030095E8030086E862
:10110000030093E8030085E80300089AAB6808939E
:10111000AA60099AE9680991EA601BB1032206A94D
:1011200008469847143402AD39462846FFF7C8FFF1
:101130006B4695E8030083E8030094E8030085E824
:10114000030093E8030084E80300049AA36804936F
:10115000A260059AE1680591E2601BB1032202A931
:10116000084698470BB0F0BD08B54FF6FF71012057
:10117000FFF7E6FE08BD000010B582B09DF81840EC
:10118000062913D0082936D12ABB0094079B1B7867
:101190001C4A02211C2010F04EFB012C22D02346B9
:1011A000194A01211C2010F046FB0BE062B9079B95
:1011B0001978009323460222B1FA81F149091348B4
:1011C000FFF71CFF02B010BD1346114A02211C207C
:1011D00010F031FBF6E713460D4A02211C2010F0F7
:1011E0002AFBEFE7079B009323460222114607489C
:1011F000FFF704FFE6E70B46064A02211C2010F029
:101200001AFBDFE708EA060420EA060448CF0020BC
:10121000ECE906043CEA060408B50248FFF718FDAD
:1012200008BD00BF40CF002002464FF00043002021
:101230001F2804D8134202D15B080130F8E7704739
:10124000F0B400231D4685421CD21768FC1A1460B6
:1012500051F8046BB4422CBF4FF0000C4FF0010C5E
:101260009F422CBF63460CF10103A41B42F8044BC0
:101270000135E8E71168C81A42F8040B99422CBFFF
:1012800000230123002BF5D1F0BC704770B4064653
:101290000D4600240F2E40F2AB8055F8040B116868
:1012A000E3FB601442F8041B55F8040B1168E3FBE0
:1012B000601442F8041B55F8040B1168E3FB60143A
:1012C00042F8041B55F8040B1168E3FB601442F864
:1012D000041B55F8040B1168E3FB601442F8041B6F
:1012E00055F8040B1168E3FB601442F8041B55F831
:1012F000040B1168E3FB601442F8041B55F8040B5F
:101300001168E3FB601442F8041B55F8040B1168E4
:10131000E3FB601442F8041B55F8040B1168E3FB6F
:10132000601442F8041B55F8040B1168E3FB6014C9
:1013300042F8041B55F8040B1168E3FB601442F8F3
:10134000041B55F8040B1168E3FB601442F8041BFE
:1013500055F8040B1168E3FB601442F8041B55F8C0
:10136000040B1168E3FB601442F8041B55F8040BEE
:101370001168E3FB601442F8041B103E8AE755F83D
:10138000040B1168E3FB601442F8041B55F8040BCE
:101390001168E3FB601442F8041B55F8040B116854
:1013A000E3FB601442F8041B55F8040B1168E3FBDF
:1013B000601442F8041B55F8040B1168E3FB601439
:1013C00042F8041B55F8040B1168E3FB601442F863
:1013D000041B55F8040B1168E3FB601442F8041B6E
:1013E00055F8040B1168E3FB601442F8041B083E37
:1013F000072EC4D846B155F8040B1168E3FB6014FE
:1014000042F8041B013EF5E71368234442F8043B0D
:101410002146A3422CBF002401248B42F4D370BC8C
:1014200070472DE9F0411E46BAB10446884617467A
:10143000824212D9002308462146FEF709FF0446DE
:10144000012908BF002801D34FF0FF3416B107FB74
:10145000148737602046BDE8F08116B14FF0FF33A6
:1014600033604FF0FF30F6E708B5890001F0DCFF8C
:1014700008BD00BA7047A9B170B5054601F18044B6
:10148000013C00EB8404A5420BD82868FFF7F1FF6C
:1014900006462068FFF7EDFF45F8040B44F80469A1
:1014A000F1E770BD70470123036000234360836050
:1014B000704778B110B50446806828B16168FFF7BD
:1014C000D3FFA06801F09EFF012323600023636027
:1014D000A36010BD704742F2107399421ED870B5D8
:1014E00004460D4643688B4201D3002070BD0421A1
:1014F000284601F07FFF064698B1A16851B16268A5
:10150000920069F089FD6168A068FFF7ADFFA068EF
:1015100001F078FF6560A6600020E7E76FF00F003C
:1015200070476FF00F00E1E7F8B588422CD006460F
:101530000D468C683CB14B68013B43B154F8232005
:101540002AB9013BF9E7FFF7B4FF00271AE05C1C5A
:101550002B6833607268A24206D221463046FFF7FC
:10156000BAFF074648B10DE0B068121B9200002197
:1015700000EB840069F078FD0027A200A968B0683C
:1015800069F04AFD3846F8BD0027FBE770B5044610
:101590000D460121FFF79FFF064608B1304670BD9A
:1015A000626892000021A06869F05EFDA36885EA88
:1015B000E572A2EBE5721A60002D02DB01232360C5
:1015C000ECE74FF0FF33FAE74368B1EB431F0AD271
:1015D00083684A0953F8220001F01F0120FA01F143
:1015E00001F001007047002070470246406890B14A
:1015F00010B5441E2CB1936853F824300BB9013C4C
:10160000F8E7936853F82400FFF70EFEC0F12000BE
:1016100000EB441010BD704708B5FFF7E6FF073038
:10162000C00808BD2DE9F84305460F46164612F0DE
:10163000030318BF012303EB9204C2EB8409436840
:10164000A3420AD0FFF735FF2846FFF72CFF2146BB
:101650002846FFF740FF804680B900212846FFF763
:1016600095FF804650B94FB1A86832463946484484
:1016700069F0D2FC2146A868FFF7FDFE4046BDE8B0
:10168000F883F8B50646084673689F00B2EB830FEF
:101690000FD81346BB4213D2B46823F00301645839
:1016A00003F00305ED00EC4014F0FF0F1AD10133F5
:1016B000F0E7D21B8C18002169F0D6FC20463A4690
:1016C00000230BE0B46823F00301655803F0030125
:1016D000C900CD40D41A013C055501339A42F1D8D6
:1016E0000020F8BD6FF00700FBE7F8B505460F4690
:1016F0004C0901F01F06FFF778FF38446B68B0EB28
:10170000431F10D81F2F24D96B68A3421FD9A96883
:101710001A1B6FF040401F18024451F8222041F874
:101720002720013BF1E710F01F0118BF012101EB59
:1017300050112846FFF7CFFE0028E3D00BE0A96840
:1017400003F18042013A002041F82200013B002BC6
:10175000F5D1C6B90020F8BDA86850F82410C6F12C
:10176000200301FA06F240F82420A86850F824204B
:101770003A4340F82420013421FA03F76968A14272
:10178000EAD80020E7E70027F8E7F8B54368B3EBAD
:10179000511F25D34C0901F01F07A3421ED01F295A
:1017A00036D8002F38D042684FF0000C92B38668CC
:1017B00002F18043013B56F82350C7F1200125FA7E
:1017C00007F446F82340866856F8234044EA0C04A0
:1017D00046F82340013A05FA01FCE7E7002FDED086
:1017E0000021FFF7D3FE16E08268191952F8211084
:1017F00042F8231001334268121B9A42F4D842681F
:101800009A42CED98268002142F823100133F6E7CC
:101810000023F0E70020F8BD0020FCE730B4436867
:1018200043B1846803F18042013A54F822200AB996
:10183000013BF5E74A6842B18D6802F18044013C02
:1018400055F824400CB9013AF5E703B9C2B1934207
:1018500018D803D24FF0FF3015E0013B73B1846814
:1018600003F18042013A54F822408D6855F8222055
:1018700094420AD8F1D24FF0FF3004E0002002E099
:10188000002000E0012030BC70470120FBE770B46D
:101890000646436843B1B46803F18042013A54F804
:1018A00022200AB9013BF5E74A6842B18D6802F18E
:1018B0008044013C55F824400CB9013AF5E703B9DE
:1018C0004AB393420FD8934210D33068002802DD08
:1018D0000A68002A21DB0A68002A0BDD002809DAE1
:1018E0004FF0FF3000E0306870BC7047086840423D
:1018F000FAE7013B6BB1B46803F18042013A54F856
:1019000022408D6855F822209442EDD8F1D2404211
:10191000EAE70020E8E70020E6E70120E4E700B579
:1019200085B081EAE173A3EBE173009300290BDB3F
:101930000123019301230293CDF80CD001A9FFF7F5
:10194000A6FF05B05DF804FB4FF0FF33F1E7F8B5F3
:1019500007461446904214D0B94205D03846FFF7E6
:10196000E3FD8446002843D101233B6066685EB1F5
:10197000A16806F18043013B51F8233023B9013EB1
:10198000F5E70C460146E7E731463846FFF7A3FD89
:10199000844668BBA068BB68002425460EE050F86A
:1019A000041B1A68A4182CBF012200220C4443F81F
:1019B000044B8C422CBF1446541C0135B542EED367
:1019C00008E01A68224443F8042BA2422CBF0024EA
:1019D0000124013564B17A68AA42F2D8691C3846FC
:1019E000FFF779FD844618B9BB6803EB8503E8E788
:1019F0006046F8BDF0B585B005460E461446114662
:101A00003046FFF70BFF00282CDB01A8FFF74BFD4A
:101A1000AC4214D0AE4205D031462846FFF784FDD3
:101A20000746C8B901232B60606880B1A26800F145
:101A30008043013B52F823304BB90138F5E721468A
:101A400001A8FFF771FD074630B901ACE2E7AA68CB
:101A5000A168FFF7F5FB002701A8FFF72AFD38462C
:101A600005B0F0BD6FF00907F9E7F8B506460C467A
:101A700015460F68136807FB03F3002B16DA1146AF
:101A80002046FFF7CBFE002807DB2A4621463046DA
:101A9000FFF7B0FF70B937600CE0224629463046A8
:101AA000FFF7A8FF30B97F42376003E0FFF74FFF31
:101AB00000B93760F8BDF8B506460C4615460F6804
:101AC000136807FB03F3002B17DD11462046FFF7D1
:101AD000A5FE002807DB2A4621463046FFF78AFF8D
:101AE00000B93760F8BD224629463046FFF782FF2D
:101AF0000028F7D17F423760F4E7FFF728FF00287E
:101B0000F0D13760EEE72DE9F04387B080460E460E
:101B1000174603A8FFF7C7FC6846FFF7C4FCB045AB
:101B20000CD0B84512D07568C5B1B26805F18043D4
:101B3000013B52F823308BB9013DF5E7314603A84C
:101B4000FFF7F2FC8146D0B903AEEAE739466846B2
:101B5000FFF7EAFC814690B96F46E4E77C6844B140
:101B6000BA6804F18043013B52F823300BB9013CC1
:101B7000F5E729194046FFF7AEFC814648B16846B3
:101B8000FFF797FC03A8FFF794FC484607B0BDE8B1
:101B9000F08300214046FFF7F9FC81460028EED192
:101BA0007CB1D8F8081004F18042013ABB6853F8C0
:101BB000223001EB8202B1682846FFF767FB013C47
:101BC000EEE732683B6803FB02F3C8F80030D6E763
:101BD00000B585B0012301930293CDF80CD000929B
:101BE00001AAFFF790FF05B05DF804FB2DE9F04F67
:101BF00097B006460F4615461C4600211846FFF7CB
:101C00008EFE002800F0B78113A8FFF74CFC10A847
:101C1000FFF749FC0DA8FFF746FC0AA8FFF743FCB5
:101C200007A8FFF740FC21462846FFF7F7FD0028EC
:101C300010DA2EB100213046FFF7A8FC804678B9B3
:101C40002FB129463846FFF76FFC804640B94FF068
:101C5000000814E0294613A8FFF766FC804690B1FF
:101C600013A8FFF726FC10A8FFF723FC0DA8FFF729
:101C700020FC0AA8FFF71DFC07A8FFF71AFC404646
:101C800017B0BDE8F08F214610A8FFF74DFC804645
:101C90000028E5D1012310931393696802310DA840
:101CA000FFF719FC80460028DAD100210DA8FFF7C4
:101CB0006DFC80460028D3D102210AA8FFF70BFC57
:101CC00080460028CCD1032107A8FFF704FC8046FA
:101CD0000028C5D110A8FFF788FC00F01F031E2BB9
:101CE00011D8C3F11F0300939946194613A8FFF7B3
:101CF000FCFC80460028B3D1494610A8FFF7F5FC4C
:101D0000804610B1ACE700230093149B03F1FF3B26
:101D1000119A0192511E0291A3EB02094FEA491A4E
:101D2000514610A8FFF7E1FC8046002898D110A981
:101D300013A8FFF7ACFD00280EDB0F9A52F82930EC
:101D4000013342F8293010AA13A90846FFF7B3FE61
:101D500080460028EBD083E7514610A8FFF715FD19
:101D6000804600287FF47CAF03960497029F02957B
:101D70005D460594019CBD4240F2CC8015994FEA26
:101D8000850951F825004FEA870A129B53F827204E
:101D9000904217D3EB1B03F18043013B0F9A4FF0A6
:101DA000FF3142F823100F9AEB1B019303F1804B94
:101DB0000BF1FF3B4FEA8B0652F82B30013342F810
:101DC0002B3047E06FF0404305EB030CDDF83C801F
:101DD000EE1B1E44002351F82C10FFF722FB48F89D
:101DE0002600E0E73A460C9B1A60129B53F80A2043
:101DF0000C9B5A600F9B9A590AA90846FFF7E8FE08
:101E0000804600287FF42CAF002107A8FFF7BEFB17
:101E1000804600287FF424AF012D30D905F180439E
:101E2000023B159A52F82320099B1A604DB305F125
:101E30008043013B159A52F82320099B5A60159B59
:101E400053F80920099B9A6007A90AA8FFF71FFD0C
:101E5000002818DD0F9A9359013B935100210AA8DD
:101E6000FFF794FB804600287FF4FAAE002FB9D02C
:101E700004F18043023B129A52F82320B3E7002278
:101E8000D2E72A46D9E70F9B53F82B2010A90AA8BE
:101E9000FFF79EFE804600287FF4E2AE019B5E1EA7
:101EA000760131460AA8FFF720FC804600287FF41F
:101EB000D7AE0AAA13A90846FFF7FDFD8046002801
:101EC0007FF4CEAE002113A8FFF729FD002801DB27
:101ED000013D50E710A90AA8FFF726FB804600281D
:101EE0007FF4BEAE31460AA8FFF7FFFB804600280C
:101EF0007FF4B6AE0AAA13A90846FFF7B6FD8046DE
:101F000000287FF4ADAE0F9A52F82B30013B42F817
:101F10002B30DDE7039E049F029D059C66B10DA951
:101F20003046FFF701FB804600287FF499AE2A680F
:101F3000236803FB02F33360002F3FF491AE009956
:101F400013A8FFF722FC804600287FF489AE2B6897
:101F5000139313A93846FFF7E7FA804600287FF469
:101F60007FAE00213846FFF7DAFC00287FF478AE18
:101F700001233B6074E66FF00B0880E670B5044601
:101F80000E46154600211046FFF7C9FC002826DB47
:101F90002B46324621460020FFF728FE064668B948
:101FA00000212046FFF7BBFC002809DA2A4621461B
:101FB0002046FFF75AFD06460028F1D0304670BD96
:101FC00029462046FFF763FC0028F7DB2A46214616
:101FD0002046FFF770FD06460028F1D0EEE76FF0CF
:101FE0000906EBE72DE9F04705460E4617469846E9
:101FF00011F0030418BF012404EB9104C1EB840A1F
:102000004368A3420AD0FFF754FA2846FFF74BFA79
:1020100021462846FFF75FFA814670B9002128461D
:10202000FFF7B4FA814640B9A968324651444046A8
:10203000B8472146A868FFF71EFA4846BDE8F08772
:102040000146044B586820B11A788A4201D00833FF
:10205000F8E77047F4EB060408B53C22002169F06C
:1020600003F808BDA0B110B50446806B28B1242147
:1020700001F0DAF9A06B01F0C5F9606B18B12368C3
:102080009B699B6998473C21204601F0CDF910BD22
:102090007047000071B138B504460D463C2200215E
:1020A00068F0E2FFAB695B699847606320B1256027
:1020B000002038BD014870470148FAE7009FFFFF44
:1020C000809EFFFF38B50468E4B1256915F0020F62
:1020D00002D16568954217D142600372012B0CD082
:1020E0006578032D09D0042D07D0052D05D06BB9D7
:1020F000A3691B69406B984703E0A369DB68406BE9
:10210000984738BD0248FCE70148FAE70048F8E77D
:10211000009FFFFFF0B585B014460A9D0268002AB3
:102120003AD000222A600268E2B1D2F814C0567890
:10213000012E1AD0BCF1000F32D0994222D0052EC8
:1021400032D19269966800F10902029301910092DE
:1021500000F1200300F11C022146406BB04778B922
:102160002C600DE04FF0000CE1E7644516D12C60C7
:102170000268926954680A4690F90810406BA047BB
:1021800005B0F0BDC7696FB9B4FBFCF70CFB17478E
:10219000002FD4D00548F3E70448F1E70448EFE7FF
:1021A0000448EDE70148EBE70348E9E7009FFFFF3C
:1021B000809DFFFF809CFFFF809FFFFF30B587B0B1
:1021C0000D460C9904686478082C13D10E9C21608C
:1021D000109C05940F9C04940D9C03940B9C0294FA
:1021E0000A9C0194009313462A46406B67F039FC21
:1021F00007B030BD0048FBE7809FFFFF30B587B0D8
:102200000D460C9904686478082C18D10E9C216046
:10221000109C05940F9C04940D9C03940B9C0294B9
:102220000A9C0194009313462A46406B67F02FFCEA
:1022300010F10F0F01D007B030BD0248FBE7024894
:10224000F9E700BF009DFFFF809FFFFF10B5044628
:1022500067F0FEFB204601F0D5F810BD10B5242133
:10226000012001F0C7F8044608B167F0D5FB20460D
:1022700010BD08B513460A46022167F0D1FB08BD20
:1022800010B5044666F0E5FC204601F0BBF810BD31
:1022900010B54FF49A71012001F0ACF8044608B172
:1022A00066F0D2FC204610BD08B566F0F0FC08BD13
:1022B00008B566F0D8FC08BD10B584B0089C02943F
:1022C000079C0194069C009466F036FD04B010BD96
:1022D00008B566F0DFFC08BD70B4102A05D0082AE6
:1022E0001BD11B26531E002408E08726FAE7CD5C8D
:1022F00044EA4504C454CC5CE409013B002BF6DA03
:1023000091F90030DB11DBB2013A06EA0301835C8C
:102310004B408354002070BC70470148FBE700BF6E
:10232000009FFFFF70B400249C4205D20D5D165D36
:10233000754005550134F7E770BC704730B4002490
:1023400004E09C4209D00025055501348C4207D297
:102350009C42F6D2155D0555F7E780250555F4E753
:1023600030BC7047F0B589B004460D4617461021C1
:102370000DEB010001F058F823685E6903AB009390
:1023800004AB324619462046FFF7C4FE044638B176
:1023900010210DEB010001F047F8204609B0F0BD17
:1023A000324604A92846FFF797FF04460028EFD1DC
:1023B000324629463846FFF78FFF0446E8E700001B
:1023C00038B5E8B104460368E3B1E9B10123FFF78A
:1023D00079FE054690B923681B78042B03D8022B9D
:1023E00003D20C4D0AE0242B10D12421012001F04E
:1023F00001F868B1A063102101F016F8284638BD35
:10240000044DFBE7034DF9E7024DF7E7014DF5E712
:10241000014DF3E7009FFFFF809EFFFF2DE9F04F86
:1024200087B000286BD00E46904682460368002B8A
:1024300068D0002969D0D0F838B0BBF1000F67D060
:102440005C695D46DBF8200020B3221A424502D3C6
:102450000023039320E01030584468F0DDFD23464C
:102460005A460BF110015846FFF75CFF05AB00938D
:102470005B46224659465046FFF74CFE039060BB30
:10248000DBF82030E21A16441B1B98440023CBF8DB
:10249000203001E00023039308EB040909F1FF3920
:1024A000B9FBF4F901274F4514D223462A46314699
:1024B0002846FFF737FF05AB00932B4622462946F7
:1024C0005046FFF727FE039038B9A8EB04082644CE
:1024D0000137E8E7B8F1000F03D1039807B0BDE872
:1024E000F08FDBF82000103042463146584468F047
:1024F00093FDDBF820304344CBF82030EDE7064B6A
:102500000393EAE7044B0393E7E7034B0393E4E702
:10251000014B0393E1E700BF009FFFFF2DE9F0416E
:1025200090B000285AD00F4606460368002B57D0BB
:10253000846B002C56D0002956D05D6910210CA860
:1025400000F072FF102108A800F06EFF08AA0CA985
:102550003046FFF707FF04F11008236AAB4230D280
:102560004246294604A8FFF7E9FE2B4608AA04A91B
:102570000846FFF7D7FE2B46224604A92046FFF760
:10258000D1FE03AB009323462A4621463046FFF78F
:10259000C1FD0646E0B110210CA800F045FF102156
:1025A00008A800F041FF002323621021404600F0FC
:1025B0003BFF1021204600F037FF304610B0BDE849
:1025C000F0812B460CAA414604A8FFF7ABFED2E7E8
:1025D0002A462146384668F01FFDDCE7034EECE74B
:1025E000024EEAE7014EE8E7004EE6E7009FFFFFF4
:1025F0002DE9F04190B0179F60B30C4690461D4600
:10260000064649B353B35FB301A8FFF725FD314632
:1026100001A8FFF73FFD064630B101A8FFF722FDF4
:10262000304610B0BDE8F0814246214601A8FFF7D0
:10263000C7FE06460028F0D1169A294601A8FFF7E2
:10264000EDFE06460028E8D1394601A8FFF766FFEF
:102650000646E2E7034EE3E7024EE1E7014EDFE71D
:10266000004EDDE7009FFFFF2DE9F0438BB0DDF862
:10267000488000283AD00D4614461E460746002AD8
:1026800036D0B8F1000F35D00220FFF7D9FC8146D3
:1026900050B3102D17D102AD38687968BA68FB685D
:1026A0000FC5CDF8048000962346802202A9484633
:1026B000FFF79EFF0546102102A800F0B5FE284650
:1026C0000BB0BDE8F08300230693079308930993AA
:1026D00002AB019300953B46802206A9FFF788FFD5
:1026E00005460028DDD0E6E7034DE4E7034DE6E7C5
:1026F000024DE4E7014DE2E7809FFFFF009FFFFFEF
:102700002DE9F047ADF54E7DB2F5C07F00F2AA800D
:1027100080460C4616464FF4D072002166A868F039
:10272000A3FC01A866F090FA330E8DF8A831330CA3
:102730008DF8A931330A8DF8AA318DF8AB613023B9
:102740008DF8AF316CAD32462146284668F064FC06
:102750008023AB551936002302E052AAD35401332B
:102760001F2BFADD4FF4807252A901A866F07BFAA4
:102770000746002854D18146B9F12F0F33DC0023DE
:102780004E934F9350935193354666AC0DE0103401
:10279000102D94BF6D1B103D4EAB1A46012101A8B0
:1027A00066F078FA824600283BD14DB13B460F2BAC
:1027B000EDDCE25C4EA9C85C4240CA540133F6E746
:1027C0000DF5B47C0CEB09054EAC0FCC4CF80900B0
:1027D0006960AA60EB609DF89B3101338DF89B31F5
:1027E00009F11009C8E74FF480725AA901A866F0F0
:1027F0003AFA8246A8B9064645462F2E11DC62AB4E
:102800001A46012101A866F045FA824648B962AC31
:102810000FCC28606960AA60EB6010351036ECE7D9
:10282000824601A866F015FA4FF4D07166A800F050
:10283000FBFD30215AA800F0F7FD202152A800F03E
:10284000F3FD10214EA800F0EFFDBAF1000F04D106
:1028500050460DF54E7DBDE8F0873021404600F032
:10286000E3FDF5E76FF0370AF2E72DE9F0418CB0B0
:1028700004460D4630220021684668F0F5FB00272B
:102880006E460AE033462246012104F1200066F03C
:1028900001FA804620BB103610372F2F0ADC102299
:1028A000002AEFDD013AA35C0133DBB2A354002B15
:1028B000F6D0E7E7002308E0EA5C0CA9194411F818
:1028C000300C424001F8302C01332F2BF4DD4FF453
:1028D0008072694604F1200066F0C5F9804638B17F
:1028E0003021684600F0A0FD40460CB0BDE8F08104
:1028F00008AD0FCD20606160A260E360F0E708B52D
:102900004FF4AE72002168F0AFFB08BDF0B5E1B046
:102910008369B3F5C07F38D804460E461546C3F523
:10292000C073934234D34FF4C0720021684668F0FC
:102930009BFBD4F85431A2696946D4F858019847F2
:1029400048BBA76906B175B93A4669466846FFF7BC
:10295000D7FE054678B14FF4C071684600F064FDBB
:10296000284661B0F0BD2A4631460DEB070068F0FD
:1029700053FB2F44E8E769462046FFF776FF0546FC
:102980000028E8D101232361E5E76FF03705E7E789
:102990006FF03705E4E76FF03305E1E72DE9F0412B
:1029A00088B004460E4615461F4620220021684680
:1029B00068F05AFB04F12008404666F045F9C4F877
:1029C0005461C4F858510F9BA36142F21073E36144
:1029D0004FF480726946404666F045F910B108B080
:1029E000BDE8F0810E9A39462046FFF78FFFF6E7E3
:1029F00010B582B020240194049C0094FFF7CEFF10
:102A000002B010BD2DE9F04190B0DDF85880B2F56C
:102A1000806F5AD805460F4616461C46B8F5807F8B
:102A200056D83022002104A868F01EFB2A69EB6901
:102A30009A4201DC6B6933B1424621462846FFF7D2
:102A400065FF10B33EE0B8F1000F1ED042462146AC
:102A500004A8FFF755FE60BB04A92846FFF705FF51
:102A600098B126E06B462A46012105F1200066F068
:102A700011F9F0B93446102E28BF102422466946B9
:102A8000384668F0C9FA2744361B56B11024002C8A
:102A9000E8DD013C2B5D0133DBB22B55002BF6D07A
:102AA000E0E704A92846FFF7E0FE10B92B690133DF
:102AB0002B61302104A800F0B7FC1021684600F01B
:102AC000B3FC002010B0BDE8F0816FF03500F9E7ED
:102AD0006FF03700F6E700B583B000230093FFF7EF
:102AE00091FF03B05DF804FB10B5044665F076FC79
:102AF00004F17000FEF7DDFC04F17C0065F05EFC83
:102B000004F1A00065F05AFC04F1C400FEF7D1FC0A
:102B100010BD10B50446D422002168F0A5FA0023A8
:102B2000A370237010BD68B110B504468378012BE3
:102B300004D000232370A370637010BD0430FFF72E
:102B4000D3FFF6E770472DE9F0418AB004460E4600
:102B500090461D46202B1DD88DF824608DF82550F9
:102B600023682BB90021201D65F088FF074648B96E
:102B7000012344F8043B022209A9204665F0C8FF5E
:102B80000746A0B1202101A800F04EFC38460AB04B
:102B9000BDE8F081002301AA2946404601F067FD07
:102BA00007460028EED10DF104082025D4E72A4677
:102BB0004146204665F0ACFF0746E3E72DE9F041CA
:102BC000A2B0036F002B40D006464FF000084446E9
:102BD00002E098460BE00134336FA34224DD04EB9E
:102BE000840306EB8303D3F88430012BF1D0002358
:102BF000019304EB840506EB85056F6F01AB802222
:102C000002A9A86FB847024698B9019B002BE2D0F1
:102C100002AAE1B23046FFF796FF0246C0B9E96F5B
:102C200001980144E967D6E7B8F1000F0AD01446CD
:102C300000E00446802102A800F0F6FB204622B006
:102C4000BDE8F0816FF03C04F4E76FF03F04F5E776
:102C50000446F3E730B4046F002C0FDC04EB84056A
:102C600000EB85056967AA67C5F88030029BC5F847
:102C7000843001340467002030BC70476FF03D00A1
:102C8000FAE7000030B583B00446002505674567C4
:102C90008567C567C0F88050C0F8845040F8045B71
:102CA00065F0D8FE0123009320232A4602492046DE
:102CB000FFF7D0FF03B030BD0B8000042DE9F043D7
:102CC00089B0202A6AD8054688461746002303F1B2
:102CD0000109B3F5807F5EDC2846FFF76FFF0646EB
:102CE00038B12021684600F09FFB304609B0BDE8AE
:102CF000F0830346012000E001332A6F9A420ADD87
:102D000003EB830405EB8404E16FD4F88020914247
:102D1000F2D23046F0E708B94B46D8E7202200212E
:102D2000684668F0A1F92C1D6946204665F058FFF9
:102D300006460028D5D1204665F090FE204665F075
:102D400089FE0021204665F099FE06460028C8D17C
:102D500020226946204665F0DBFE06460028C0D1E9
:102D600000236A462021684601F081FC06460028BF
:102D7000B7D1034606E003EB830205EB8202002194
:102D8000D16701332A6F9A42F5DC3A4669464046DC
:102D900068F042F9A5E76FF03B06A2E76FF03B064B
:102DA000A3E70AB100230B707047000070B58AB02A
:102DB00005461E4600240294039404940594069448
:102DC000079408940994084651B10F9B01930E9BF8
:102DD000009333460146284600F0EEF90AB070BD74
:102DE00032B9284600F01AFA024618B102A8ECE7F8
:102DF0000148F3E70048F1E780A0FFFF2DE9F04F1D
:102E00008FB001919A46199B002B77D004469346C8
:102E100000F004FA0746584572D8002872D0BAF17B
:102E2000000F1CD01A9BB3FBF0F800FB183008B160
:102E300008F10108B8F1FF0F66D80BA800F0A2F85E
:102E4000012221460BA800F0BBF80446002840D11F
:102E500001254FF000094E460090199C0DE000231B
:102E60001893DFF8ACA0DDE71A9B9A1B03A9A01901
:102E700068F0D2F83E440135B946A84528D38DF80C
:102E80000B505A4601990BA800F0BEF8009058BBB1
:102E90004A4603A90BA800F025F9009030BB189A08
:102EA00051460BA800F01EF9009008BB01220DF15D
:102EB0000B010BA800F016F90090D8B903A90BA8D4
:102EC00000F024F90090B8B9A845CDD03A46CDE736
:102ED000009C0BA800F05BF8202103A800F0A4FAE6
:102EE00020460FB0BDE8F08F009CF2E7009CF0E7B1
:102EF000009CEEE7009CECE7009CEAE7034CEFE760
:102F0000024CEDE7014CEBE7004CE9E780A0FFFF46
:102F1000C03B070430B58DB0054604AC0194109C4D
:102F20000094FFF743FF044630B1202104A800F0CD
:102F30007BFA20460DB030BD284600F06FF90246FE
:102F4000149B0293139B0193129B0093119B04A962
:102F50002846FFF753FF0446E7E70000052807D09F
:102F6000062807D0042801D0002070470248704787
:102F700002487047024870475CEC06048CEC06047B
:102F8000BCEC060400230360436083607047B0B16B
:102F900010B5044603688BB1406808B15B6A984776
:102FA000A06838B12368D968490000F03DFAA068EC
:102FB00000F028FA0C21204600F036FA10BD7047C8
:102FC000C1B170B5044615460E46A8B10B6A9847C4
:102FD000606098B115B92660002070BDF1680220CC
:102FE00000F008FAA0600028F5D1736A606898477D
:102FF0000348F2E7034870470248EEE70048ECE771
:1030000080AEFFFF00AFFFFF2DE9F04188B0002840
:1030100060D00C46174680460368002B5CD082685F
:10302000002A5BD0DA68BA421DD21B694068984713
:103030000646002846D1D8F800305B693A4621465A
:10304000D8F804009847064600283BD1D8F800304D
:103050009B696946D8F804009847064690BBD8F8A3
:1030600000309F686C46D8F80850D8F80030DA680D
:10307000AE183621284667F0F7FFD8F80030DA6836
:103080005C21304667F0F0FF002308E0EA5CE15C79
:103090004A40EA54F05CE25C5040F05401339F42F5
:1030A000F4D8D8F800301B69D8F8040098470646D1
:1030B00040B9D8F800305C69DA682946D8F80400CD
:1030C000A04706462021684600F0AEF9304608B019
:1030D000BDE8F081024EF9E7014EF7E7004EF5E753
:1030E00000AFFFFF48B10346006840B110B59C68CF
:1030F0003CB144695868A04710BD03487047024876
:1031000070470148F8E700BF00AFFFFF002830D04C
:10311000F0B589B00E4604460368002B2CD08268B7
:10312000002A2BD0DD6815449B69694640689847A2
:103130000346D8B923681B69606898470346A8B955
:1031400023685F69DA6829466068B847034668B94A
:1031500023685D699A6869466068A847034628B98C
:1031600023689B693146606898470346184609B052
:10317000F0BD034B18467047014BF7E7004BF5E7EE
:1031800000AFFFFF80B170B50446036873B1856876
:1031900075B11B694068984728B923685E69DA6889
:1031A00029466068B04770BD024870470148FAE799
:1031B0000048F8E700AFFFFFF0B585B048B30F4611
:1031C00014461D46064601A8FFF7DCFE01223146E3
:1031D00001A8FFF7F5FE064628B101A8FFF7D7FEC4
:1031E000304605B0F0BD2246394601A8FFF70CFF76
:1031F00006460028F1D10A9A294601A8FFF772FF76
:1032000006460028E9D10B9901A8FFF77FFF064683
:10321000E3E7014EE4E700BF00AFFFFF08B1007A2B
:1032200070470020704708B500F034F908BD08B5B4
:1032300000F011F908BD10B5044600F005F920466C
:1032400000F0E0F810BD10B55C21012000F0D2F8CC
:10325000044608B100F0F2F8204610BD08B501F0B0
:103260006AF908BD08B501F023F908BD08B500F0FA
:10327000F7F808BD08B565F01FFC08BD08B565F096
:10328000F7FB08BD10B5044665F0E8FB204600F0EA
:10329000B9F810BD10B56C21012000F0ABF8044660
:1032A00008B165F0D7FB204610BD08B5012301F039
:1032B000DEF908BD08B5002301F0D9F908BD08B54D
:1032C00065F08EFC08BD08B565F022FC08BD08B5A8
:1032D000012165F0D3FB08BD08B5002165F0CEFBE8
:1032E00008BD2DE9F04F93B00546884617469B462A
:1032F000DDF874900068FFF791FF04460023ADF8F5
:1033000004308DF8063001238DF807301E9B002B0A
:103310006CD03A4641462846FFF776FE0346002821
:1033200064D11C9A59462846FFF7DCFE0346002864
:103330005CD104220DEB02012846FFF7D3FE0346C1
:10334000002853D102A92846FFF7E0FE03460028D3
:103350004CD1A246224602A90AA867F05DFE0126CA
:1033600000E001364E4522D23A4641462846FFF754
:103370004BFE0346002839D152460AA92846FFF7DA
:10338000B1FE0346002831D10AA92846FFF7BEFE48
:10339000034658BB9C42E4DD12AA1A4412F8201CD2
:1033A00012F8400C414002F8401C0133F2E71E9B2A
:1033B000A34228BF23461E461A4602A91F9867F05B
:1033C0002BFE1E9B9B1B1E931F9B33441F930422AB
:1033D000002A9BD0013A12AB991811F8443C0133F2
:1033E000DBB201F8443C002BF2D08FE7184613B053
:1033F000BDE8F08F08B5024B1B68984708BD00BFB9
:1034000004A4002008B5024B1B68984708BD00BF04
:1034100008A40020024B1860024B1960002070477E
:1034200004A4002008A4002008B50A46024B1B682B
:103430000021984708BD00BF0CA4002008B55C22FD
:10344000002167F011FE08BD20B108B55C21FFF72F
:10345000EBFF08BD704708B55C2267F0DDFD08BDD5
:103460000346002018605860084A9A6002F18832CA
:10347000DA6002F12942A2F59612A2F68B621A6175
:10348000A2F188325A61024A9A6170470123456766
:10349000F0E1D2C32DE9F04F9BB0864608460B7889
:1034A0004978090441EA0361837841EA0321C3783A
:1034B0000B430D9303794279120442EA0362837944
:1034C00042EA0322C37942EA03010E91027A437A67
:1034D0001B0443EA0263827A43EA0223C27A13435B
:1034E0000893067B417B090441EA0661867B41EA39
:1034F0000621C67B0E43017C427C120442EA016233
:10350000817C42EA0122C17C42EA01030993017DE8
:10351000427D120442EA0162817D42EA0122C17DBC
:1035200042EA01070F97027E417E090441EA0261E7
:10353000827E41EA0221C27E11430A91017F427FCD
:10354000120442EA0162817F42EA0122C17F42EA1B
:1035500001040B9490F8201090F82120120442EA04
:10356000016290F8221042EA012290F8231042EA08
:10357000010CCDF830C090F8242090F825100904F3
:1035800041EA026190F8262041EA022190F82720C2
:1035900041EA020CCDF810C090F8281090F82920CC
:1035A000120442EA016290F82A1042EA012290F8DD
:1035B0002B1042EA0105059590F82C1090F82D206B
:1035C000120442EA016290F82E1042EA012290F8B9
:1035D0002F1042EA010CCDF818C090F8302090F876
:1035E0003110090441EA026190F8322041EA0221D7
:1035F00090F8332041EA020CCDF81CC090F834104A
:1036000090F83520120442EA016290F8361042EA3E
:10361000012290F8371042EA010CCDF804C090F86E
:10362000381090F83920120442EA016290F83A10FA
:1036300042EA012290F83B1042EA010CCDF808C0A2
:1036400090F83C2090F83D10090441EA026190F89E
:103650003E2041EA022190F83F2041EA020CCDF8D9
:103660000CC0DEF808000346DEF80C00DEF810702F
:10367000DEF814100C46CDF864E0DEF8185015950D
:103680007940054601402246614001EBF3610D9807
:10369000014415980144E348014487EAB5041C40FD
:1036A00014977C4004EBF1640E9F3C441892144440
:1036B000044416934FEAB30282EAB5070F4087EA43
:1036C000B50707EBF467089B1F44149B1F4407448E
:1036D00082EAB10909EA040989EA020909EBF769F2
:1036E000B144179509EBB50981444FEAB40484EA63
:1036F000B10E0EEA070E8EEAB10E0EEBF96E099DC1
:10370000AE449644864484EAB70505EA0905654057
:1037100005EBFE650F9A154405EBB10505444FEA2C
:10372000B90989EAB70808EA0E0888EAB70808EB79
:10373000F5680A998844A044804489EABE0A0AEAE6
:10374000050A8AEA090A0AEBF86A0B9CA2440AEB0A
:10375000B70A82444FEAB50585EABE0C0CEA080CAC
:103760008CEABE0C0CEBFA6C0C9CA444CC44844454
:1037700085EAB80202EA0A026A4002EBFC62049F90
:103780003A4402EBBE0202444FEABA0A8AEAB8019E
:1037900001EA0C0181EAB80101EBF261059C2144C8
:1037A000294401448AEABC0B0BEA020B8BEA0A0BA0
:1037B0000BEBF16B069DAB440BEBB80B83444FEA6C
:1037C000B20282EABC040C4084EABC0404EBFB6451
:1037D000079D2C445444044482EAB10707EA0B07CE
:1037E000574007EBF467019B1F4407EBBC070744F6
:1037F0004FEABB0B8BEAB10909EA040989EAB1096E
:1038000009EBF769029DA944914481448BEAB40510
:103810003D4085EA0B0505EBF965039A154405EB78
:10382000B10505444FEAB7070C995940089B594028
:103830000D9A514087EAB40808EA090888EAB408F2
:1038400008EBF5684FEAF172109208EBF1788044CA
:10385000D844049A9446029A8CEA020272400E9B63
:103860005A4087EAB90A0AEA050A8AEA070A0AEB0D
:10387000F86A4FEAF2730D930AEBF27A82440AEB8C
:10388000B40E4FEAB505059CA446039C8CEA0404DB
:10389000099B5C40089B634085EAB90C0CEA080C64
:1038A0008CEAB90C0CEBFE6C4FEAF37408940CEB49
:1038B000F37C8444BC44069F87EAF1710F9F7940F2
:1038C000714085EAB80606EA0E066E4006EBFC6615
:1038D0004FEAF1740E9406EBF176064406EBB90656
:1038E000079880EAF2720A984240099842408CEAAE
:1038F000BE0484EAB80404EBF6644FEAF27009905F
:1039000004EBF27404F1DD4404F5B30404F5D74488
:1039100021342544019C84EAF3730B9843407B4097
:1039200086EABC0B8BEABE0B0BEBF56B4FEAF37927
:103930000BEBF37B0BF1DD4B0BF5B30B0BF5D74B1F
:103940000BF1210B0BEBB80B029F87EAF1710C9C7A
:1039500061400A98414085EAB60A8AEABC0A0AEB45
:10396000FB6A4FEAF1780AEBF17A0AF1DD4A0AF5CF
:10397000B30A0AF5D74A0AF1210A0AEBBE0A039FE5
:1039800087EAF272049F7A400B9842408BEAB507AF
:1039900087EAB60707EBFA674FEAF27E07EBF277A2
:1039A00007F1DD4707F5B30707F5D747213707EBE1
:1039B000BC07109880EAF3730598434063408AEA95
:1039C000BB0484EAB50404EBF7644FEAF37C04EB30
:1039D000F37404F1DD4404F5B30404F5D744213451
:1039E00004EBB6060D9C84EAF17106984140049CF4
:1039F000614087EABA0484EABB0404EBF6644FEA48
:103A0000F1700B9004EBF17404F1DD4404F5B304A0
:103A100004F5D744213404EBB505089C84EAF2721E
:103A200002E000BF9979825A0798424005984240C7
:103A300086EAB70484EABA0404EBF5644FEAF2704C
:103A40000C9004EBF27404F1DD4404F5B30404F5C6
:103A5000D744213404EBBB0B0E9C84EAF373019C26
:103A600063400698434085EAB60484EAB70404EB51
:103A7000FB644FEAF370049004EBF37404F1DD444B
:103A800004F5B30404F5D744213404EBBA0A0998C9
:103A900080EAF171029C6140079841408BEAB504CD
:103AA00084EAB60404EBFA644FEAF170059004EB83
:103AB000F17404F1DD4404F5B30404F5D744213472
:103AC00004EBB70789EAF272039C6240019C6240F2
:103AD0008AEABB0484EAB50404EBF7644FEAF270A7
:103AE000019004EBF27404F1DD4404F5B30404F531
:103AF000D744213404EBB60688EAF37310984340A8
:103B0000029C634087EABA0484EABB04029604EB91
:103B1000F6644FEAF3760F9604EBF37404F1DD4498
:103B200004F5B30404F5D744213404EBB5058EEA5B
:103B3000F1710D9C6140039C6140029C84EAB704D2
:103B400084EABA0404EBF5644FEAF176039604EBD9
:103B5000F17404F1DD4404F5B30404F5D7442134D1
:103B600004EBBB048CEAF272089E72404240029E53
:103B700085EAB60B8BEAB70B0BEBF46B4FEAF276E8
:103B800010960BEBF27B0BF1DD4B0BF5B30B0BF54A
:103B9000D74B0BF1210B0BEBBA0A0B9E86EAF373A2
:103BA0000E9843400D98434084EAB50B02988BEA87
:103BB000B00B0BEBFA6B4FEAF37606960BEBF37B4D
:103BC0000BF1DD4B0BF5B30B0BF5D74B0BF1210BC9
:103BD0000BEBB7070C9E86EAF171099E7140089EB7
:103BE00071408AEAB40B8BEAB50B0BEBF76B4FEA2B
:103BF000F17607960BEBF17B0BF1DD4B0BF5B30B7D
:103C00000BF5D74B0BF1210B0BEBB006049880EAB8
:103C1000F27289EA02020E98424087EABA0B8BEAF6
:103C2000B40B0BEBF66B4FEAF27011900BEBF27BDF
:103C30000BF1DD4B0BF5B30B0BF5D74B0BF1210B58
:103C40000BEBB505059880EAF37388EA030309983E
:103C5000434086EAB70B8BEABA0B0BEBF56B4FEAE6
:103C6000F37008900BEBF37B0BF1DD4B0BF5B30B13
:103C70000BF5D74B0BF1210B0BEBB404019880EA49
:103C8000F1718EEA010189EA010985EAB60181EA4A
:103C9000B70101EBF4614FEAF97BCDF824B001EBF9
:103CA000F97101F1DD4101F5B30101F5D741213190
:103CB00001EBBA0A0F9981EAF2728CEA020288EAF1
:103CC000020884EAB50B8BEAB60B0BEBFA6B4FEAF2
:103CD000F8720A920BEBF87B0BF1DD4B0BF5B30B93
:103CE0000BF5D74B0BF1210B0BEBB707039A82EACD
:103CF000F3730B994B408EEA030E8AEAB40B8BEAFE
:103D0000B50B0BEBF76B4FEAFE720B920BEBFE7BE6
:103D10000BF1DD4B0BF5B30B0BF5D74B0BF1210B77
:103D20000BEBB606109A82EAF9790C9880EA090939
:103D30008CEA090C07EABA0B47EABA0303EAB403B0
:103D40004BEA030B0BEBF66B4FEAFC79CDF83090A6
:103D50000BEBFC7BDA4A93440BEBB505069B83EA3D
:103D6000F878049B83EA080881EA080806EAB703A2
:103D700046EAB70101EABA0143EA010B0BEBF56B26
:103D80004FEAF879CDF834900BEBF87B93440BEBCA
:103D9000B404079981EAFE7E059981EA0E0E80EA55
:103DA0000E0E05EAB60345EAB60101EAB70119436A
:103DB00001EBF4614FEAFE79CDF8389001EBFE712A
:103DC000114401EBBA0A119880EAFC7C019981EA5E
:103DD0000C0C049880EA0C0C04EAB50344EAB50123
:103DE00001EAB60143EA010B0BEBFA6B4FEAFC79EF
:103DF000CDF810900BEBFC7B93440BEBB7070898C6
:103E000080EAF8780F9880EA0808059981EA08089E
:103E10000AEAB4034AEAB40101EAB50143EA010936
:103E200009EBF7694FEAF87BCDF814B009EBF879A4
:103E3000914409EBB606099981EAFE7E039981EA6D
:103E40000E0E019981EA0E0E07EABA0347EABA019B
:103E500001EAB40143EA010B0BEBF66B4FEAFE7982
:103E6000CDF848900BEBFE7B93440BEBB50301932D
:103E70000A9981EAFC73109D6B40434006EAB70142
:103E800046EAB70000EABA0041EA000B01990BEBE1
:103E9000F16B4FEAF3700F900BEBF37B93440BEB5A
:103EA000B40002900B9880EAF878069880EA080837
:103EB000039981EA0808019901EAB601019840EAEC
:103EC000B60000EAB70041EA000B02980BEBF06B7A
:103ED0004FEAF87410940BEBF87B93440BEBBA0A9F
:103EE0000C9880EAFE70079948406840029C019D4A
:103EF00004EAB5012546019C45EAB40C0CEAB60C6F
:103F000041EA0C0E0EEBFA6E4FEAF07103910EEBE4
:103F1000F07E96440EEBB7070D9981EAF373119C7E
:103F2000634006994B400AEAB5094AEAB501019D8A
:103F300001EAB50149EA010909EBF7694FEAF371B2
:103F4000069109EBF379914409EBB6090E9E86EAD6
:103F5000F871089E7140079E714007EABA0847EA67
:103F6000BA06029D06EAB50648EA060808EBF968B3
:103F70004FEAF176119608EBF1789044019D08EB39
:103F8000B505049E86EAF070099E7040604009EA1B
:103F9000B70649EAB70C0CEABA0C46EA0C0606EB7F
:103FA000F5664FEAF074019406EBF0761644029C35
:103FB00006EBB404059E86EAF3730A9E7340089EDE
:103FC000734005EAB90B45EAB90606EAB7064BEABB
:103FD000060B0BEBF46B4FEAF37602960BEBF37BDD
:103FE00093440BEBBA0B129E86EAF1710B9E714063
:103FF000099E81EA060A04EAB50E44EAB50606EA15
:10400000B9064EEA060E0EEBFB6E4FEAFA761396F1
:104010000EEBFA7E96440EEBB7070F9E86EAF07021
:104020000C9E70400A9E80EA060E0BEAB4064BEA2C
:10403000B40C0CEAB50C46EA0C0606EBF7664FEA40
:10404000FE71079106EBFE76164406EBB909109E49
:1040500086EAF3730D9E73400B9E734007EABB081C
:1040600047EABB0606EAB40648EA060808EBF96820
:104070004FEAF371089108EBF378904408EBB5052B
:10408000039E86EAFA710E9E71400C9E714009EA09
:10409000B70649EAB70C0CEABB0C46EA0C0606EB7D
:1040A000F5664FEAF170099006EBF176164406EBDF
:1040B000B406069C84EAFE70049C60400D9C01E0FE
:1040C000DCBC1B8F604005EAB90C45EAB90A0AEA74
:1040D000B70A4CEA0A0C0CEBF66C4FEAF0740A943F
:1040E0000CEBF07C94440CEBBB0A119C84EAF37358
:1040F000059C63400E9C634006EAB50E46EAB50493
:1041000004EAB9044EEA040E0EEBFA6E4FEAF374B9
:104110000B940EEBF37E96440EEBB70E019F87EAED
:10412000F171129F7940049C61400AEAB6024AEAA2
:10413000B60404EAB504224302EBFE624FEAF174CE
:10414000049402EBF172D54C144404EBB909029CBF
:1041500084EAF0720F984240059C62408EEABA08E9
:1041600088EAB60808EBF9684FEAF270059008EBA8
:10417000F278CB48804408EBB508139D85EAF373C9
:10418000109D6B407B4089EABE0484EABA0404EBCC
:10419000F8644FEAF3770C9704EBF374044404EBF0
:1041A000B604079F87EAF171039E71400F9E71402C
:1041B00088EAB90B8BEABE0B0BEBF46B4FEAF17696
:1041C0000D960BEBF17B83440BEBBA0C089E86EA51
:1041D000F272069F7A406A4084EAB80787EAB90714
:1041E00007EBFC674FEAF2750E9507EBF277074491
:1041F00007EBBE0E099D85EAF373119F7B40039E7A
:1042000073408CEAB40686EAB80606EBFE664FEA0F
:10421000F375039506EBF376064406EBB9090A9E9F
:1042200086EAF171019E7140069E71408EEABC05DE
:1042300085EAB40505EBF9654FEAF176069605EBDC
:10424000F175054405EBB8080B9D85EAF272029DF5
:104250006A407A4089EABE0585EABC0505EBF86547
:104260004FEAF2770F9705EBF275054405EBB404BE
:10427000049F87EAF373139D6B40019E734088EAA5
:10428000B90A8AEABE0A0AEBF46A4FEAF377109792
:104290000AEBF37A82440AEBBC0B059F87EAF171C3
:1042A000079E7140029E714084EAB80787EAB90709
:1042B00007EBFB674FEAF17C07EBF177074407EB6D
:1042C000BE070C9E86EAF272089E72406A408BEA34
:1042D000B40686EAB80606EBF7664FEAF27E06EB0E
:1042E000F276064406EBB9060D9D85EAF373099D47
:1042F0006B40079D6B4087EABB0585EAB4050296D3
:1043000005EBF6654FEAF37905EBF375054405EB2C
:10431000B8050E9E86EAF1710A9E7140089E7140B2
:10432000029E86EAB70A8AEABB0A0AEBF56A4FEAF6
:10433000F1780AEBF17A82440AEBB40ACDF804A0D2
:10434000039C84EAF2720B9E7240099E7240029CAA
:1043500085EAB40A8AEAB70A019E0AEBF66A0AEB12
:10436000F27A82440AEBBB0A069C84EAF373049E49
:1043700073400A9E7340019C84EAB50B029C8BEA51
:10438000B40B0BEBFA6B0BEBF37B83440BEBB70734
:104390000F9C84EAF171059C61400B9E7140019E67
:1043A0008AEAB60B8BEAB50B0BEBF76B0BEBF17BE9
:1043B0008344029E0BEBB606109C84EAF2720C9CBE
:1043C0006240049C624087EABA0B019C8BEAB40B02
:1043D0000BEBF66B0BEBF27B83440BEBB5058CEA36
:1043E000F3730D9C6340059C634086EAB70B8BEA30
:1043F000BA0B0BEBF56B0BEBF37B8344019C0BEBE4
:10440000B4048EEAF17E0E9981EA0E0E0C9981EACF
:104410000E0E85EAB60C8CEAB70C0CEBF46C0CEBC8
:10442000FE7C84440CEBBA0C89EAF279039981EAA8
:1044300009090D9981EA090284EAB50181EAB60108
:1044400001EBFC6101EBF271014401EBB70788EA73
:10445000F378069981EA08080E9981EA08088CEA3F
:10446000B40B8BEAB50B0BEBF76B0BEBF87B5844FB
:1044700000EBB606169886460644199A9660179B76
:104480001F44D760149F07EBBC031361189B03EB19
:10449000B4045461159800EBB50503E0DCBC1B8F38
:1044A000D6C162CA956100201BB0BDE8F08F00BF85
:1044B0002DE9F843DAB306460D461446036803F0C7
:1044C0003F07C7F1400813440360934202D2436898
:1044D000013343600FB144450AD23F2C1BD9294612
:1044E0003046FEF7D7FF034610BB4035403CF4E7AB
:1044F00006F11C094246294609EB070066F08CFDCF
:1045000049463046FEF7C6FF034688B94544403F5A
:104510003C440027E1E70CB9002309E006F11C0048
:1045200022462946384466F077FD002300E0002348
:104530001846BDE8F88370B504460D46036803F0DD
:104540003F03581C234480221A77382859D804F195
:104550001C03C0F138020021184466F085FD226872
:104560006368DB0043EA5270D1001E0E84F8546089
:10457000C3F3074684F85560C3F3072384F8563025
:1045800084F85700C2F3475384F85830C2F34733D6
:1045900084F85930C2F3471284F85A2084F85B102B
:1045A00004F11C012046FEF775FF034638BBE27A92
:1045B0002A70A27A6A70627AAA70227AEA70E27B22
:1045C0002A71A27B6A71627BAA71227BEA71E27C0A
:1045D0002A72A27C6A72627CAA72227CEA72E27DF2
:1045E0002A73A27D6A73627DAA73227DEA73E27EDA
:1045F0002A74A27E6A74627EAA74227EEA741846C5
:1046000070BD04F11C06C0F140020021304466F088
:104610002BFD31462046FEF73DFF03460028EED134
:1046200038220021304666F01FFD98E7F0B599B0BA
:1046300004460D46164601A8FEF700FF01A8FEF746
:104640000FFF074628B101A8FEF7FEFE384619B055
:10465000F0BD2A46214601A8FFF72AFF0746002899
:10466000F1D1314601A8FFF766FF0746EBE7F0B549
:104670009DB005460E4617461C4601A864F0EAF9AF
:10468000214601A864F0FAF9044628B101A864F0B3
:10469000E5F920461DB0F0BD3246294601A864F078
:1046A00037FA04460028F1D1394601A864F098FA97
:1046B0000446EBE7004870474CED06040246044808
:1046C00003681BB1934202D02030F9E70020704705
:1046D0000CED0604837A042B05D8032B01D20020AD
:1046E000704701207047083BDBB2032B01D9002043
:1046F000704701207047D0F8B43003F540730020B4
:10470000106099420ED85B1A052B0BD9034608702E
:104710000B2048708B700220C870012008714B710B
:1047200006231360704710B4D0F8B430002414602E
:104730000468B4F84C4004F4E074A4B103F5407389
:10474000994210D85B1A042B0DD900240C70012358
:104750004B708C70CB700368B3F84C30C3F382138A
:104760000B71052313605DF8044B704770B5044668
:10477000056B05F54E71036893F84C2012F0020F9B
:1047800004D0D5F840220AB100200BE09E69042233
:10479000D869B04730B923689C691C2205F54F7170
:1047A000D869A04770BD0000036BD3F830339B7A03
:1047B000042B06D85BB253B9436801334360002031
:1047C0007047093BDBB2012BF6D80248704701481D
:1047D000704700BF0094FFFFE8B110B504460069C0
:1047E00098421ADCA369934219DB0B6893F84C30AA
:1047F00013F0020F03D0237F13F0040F11D1A37A1B
:104800000B2B01D0002009E0086BD43064F0A4FD2C
:1048100020B1012002E001207047012010BD0120DD
:10482000FCE70120FAE72DE9F04707460E469146DE
:10483000D0F8B43003F5407A01F106080025156080
:1048400003689C6B207828B163F008FD78B30235CB
:104850000134F7E756452AD8AAEB060A0635AA45D9
:1048600025D33B689D6B00240BE063F0F7FC428886
:10487000631C120A08F80420428808F80320023456
:10488000013528780028F0D18CB1002333700A2339
:104890007370A31CC3F30723B370E3B29A1CF270C6
:1048A000C4F30722327173710634C9F80040BDE8C1
:1048B000F0872DE9F04184B004460D461746D0F844
:1048C000B46000231360006BD43064F045FD002811
:1048D00043D106F54076731B032B3EDD2B460122A8
:1048E00003F8022B00226A70206BD0F82C1211B151
:1048F000D0F8302212BB05F10408F61A2368DA69F1
:1049000001929B69009303ABB21E4146D43064F020
:1049100067FD10BB266B03990120FEF76BFDC6F8FF
:104920002C02236BD3F82C02B8B1039A414666F0EF
:1049300073FB236B039AC3F8302207E00392F61A45
:10494000023EB24209D8281D66F066FB039BC3F302
:104950000722AA70EB7004333B6004B0BDE8F0811D
:104960002DE9F04F85B001688B69002B00F01781AD
:10497000044691F84A30836091F84B30C36091F857
:104980004800002800F00E81D4F8B4B091F84C2013
:104990000BF10403C2F3400291F8491002F0AFFAA0
:1049A0002046FFF7E3FE824618B1504605B0BDE849
:1049B000F08F236BD3F83863D3F83C03D3F840135C
:1049C000D3F84423CBF80660CBF80A00CBF80E10DE
:1049D000CBF81220D3F84863D3F84C03D3F8501324
:1049E000D3F85423CBF81660CBF81A00CBF81E107E
:1049F000CBF82220E36A9868A0F11003102B05D8A9
:104A0000236BD3F8983313B9002000E000200BF19A
:104A1000270300938BF82600002307E0E16A009A41
:104A20001944097B02F8011B013300928342F5D33C
:104A3000236893F84C3013F0020F15D0236BD3F892
:104A40004022E2B1009D93F8443205F8013B236B0C
:104A500093F84422D3F84012284666F0DDFA236B1F
:104A600093F84432EB1800932368E26853F82280ED
:104A7000009B9F1C00263546CDF804B005E0009B46
:104A800003F8012B0093EFE701354FEA850B58F847
:104A90002500F0B1FFF712FE8146226892F84930F6
:104AA00092F84B202146FFF797FE0028ECD14846AC
:104AB000FFF710FE4AEA000A013658F80B30C3F33C
:104AC00007223B4603F8022B18F80B207A701F468A
:104AD000DAE7DDF804B000223A70FF237B70731C24
:104AE000C3F3C711009801705B0043700123BB70D2
:104AF0003E1DFA70BAF1000F3ED10025A91C03AA91
:104B000031442046FFF7D5FE039B1D44A91C03AA90
:104B100031442046FFF707FE039BED1805D0C5F38F
:104B200007233B71BE1D7D712E44A6EB0B06C4F816
:104B3000BC601623C4F8B830D4F8B43001221A701F
:104B4000636813446360236893F84C3013F0020FDA
:104B500021D1204602F046FD824600287FF425AF91
:104B6000236893F84C3013F0020F3FF41EAF204639
:104B700002F0A0FA824618E703AAB91D2046FFF703
:104B800052FE039DA91C03AA31442046FFF7B3FD42
:104B9000039B1D44B2E7204601F00EFDD9E7DFF884
:104BA0000CA002E7DFF808A0FFE600BF008CFFFFC3
:104BB000008FFFFF08B5012A06D10B7823B9012326
:104BC000C0F8D430002008BD2822022102F03CFEAB
:104BD0000048F8E78086FFFF10B50468B4F84C3051
:104BE00003F4E07353B1012A08D10A78B4F84C30C9
:104BF000C3F382139A4201D1002010BD2822022162
:104C000002F022FE0048F8E78086FFFF10B562B18F
:104C100014460B785A1CA24207D1013193B10A788D
:104C2000012A08D9013B0131F8E73222022102F0C2
:104C30000BFE07480BE0036B1A70036BC3F84821A7
:104C4000002004E02822022102F0FEFD004810BDF1
:104C50008086FFFF38B50446036BD3F8305301F06C
:104C600097F968B9AB7A042B05D85BB24BB9636886
:104C70000133636004E0093BDBB2012BF7D8024843
:104C800038BD0148FCE700BF0094FFFFF0B583B0DA
:104C90000446456E036893F84C2012F0020F43D18E
:104CA0000422154493F84C202B46C2F34002694677
:104CB00001A802F0DFFE019B022B37DD009A012ADA
:104CC00034DD216891F8480083422FDC91F84930A7
:104CD0009A422BDCEE1CAD78636E226F13449B1B53
:104CE000AB422ADB236BD3F84002FEF78BFB276B2A
:104CF00029460120FEF77EFBC7F84002236BD3F85C
:104D0000400208B32A46314666F086F9236B83F8E1
:104D1000445201236360204601F094FD204601F0D7
:104D20001DFC002003B0F0BD0C22BAE74622022190
:104D3000204602F089FD0548F4E732220221204690
:104D400002F082FD0248EDE70248EBE78091FFFFA9
:104D50008086FFFF0081FFFF38B50446012102F085
:104D600095FF0546C8B9E36E162B25D1D4F89030CF
:104D7000226892F84C1011F0020F10D104218B42DE
:104D80000FD1636E1B780E2B0BD163680133636008
:104D900092F84C3013F0020F0AD1284638BD0C218E
:104DA000EDE732220221204602F04EFD034DF4E7EA
:104DB000204601F0D3FBF0E7014DEEE78084FFFFD2
:104DC0000089FFFF70B50446036BD3F83003807A87
:104DD0000B2802D00025284670BD0E461546D3F894
:104DE0002C02FEF70FFB226B0023C2F82C32226B41
:104DF000C2F83032206B2A463146D43064F0C0FA13
:104E000005460028E7D028220221204602F01CFD9A
:104E1000E1E700002DE9F84F0546012102F036FFD9
:104E20000746002840F04D816E6EEB6E162B40F069
:104E30008B802B6893F84C3013F0020F0FD033782F
:104E4000032B00F088802B6BD3F84002FEF7DAFAD0
:104E50002A6B0023C2F840322A6B82F84432D5F81C
:104E600090002B6893F84C2012F0020F78D10422A6
:104E700002F12601884275D33178022972D1164495
:104E800093F84C203346C2F3400205F10C0105F1C2
:104E9000080002F0EFFDAA682B6893F84A108A42D6
:104EA00067DBE96893F84B00814262DB93F84800C6
:104EB00082425EDC93F8493099425ADC2A6B3346D1
:104EC00053F802CF5C689868D968C2F858C3C2F832
:104ED0005C43C2F86003C2F86413D3F810C05C6985
:104EE0009869D969C2F868C3C2F86C43C2F8700304
:104EF000C2F8741396F82240202C41D8D5F890209F
:104F00002B6893F84C3013F0020F40D10423234454
:104F100003F127018A423CD904F12601715C04F1B6
:104F2000270016F8008048EA012808F1FF3102291D
:104F300003D9434428339A4230D0322202212846F2
:104F400002F082FC964FBCE00A220221284602F0C1
:104F50007BFC944FB5E02846FFF798FE0746B0E08B
:104F60000C2285E732220221284602F06DFC8C4F8C
:104F7000A7E046220221284602F066FC8A4FA0E004
:104F800032220221284602F05FFC854F99E00C2373
:104F9000BDE726339A425CD14FF0000804F12303A9
:104FA000F35C04F1240216F802A04AEA032A04F191
:104FB000250316F80390B9F1000F51D1D5F830B0A0
:104FC0005046FFF77BFBCBF830032B6BD3F8301345
:104FD00000294CD0284601F02BFCD5F830B0DBF886
:104FE000983323B11CB1E86A0368534546D06B6817
:104FF00001336B600023CBF89833EB6AC3F800A051
:10500000EB6AC3F80490EB6A9C60E86A224606F1FA
:1050100023010C3066F000F82B68EA6853F8223060
:1050200053F82730002B46D00137EA6A10688342D4
:10503000F2D1FFF743FBEA6813462946FFF7CCFBA2
:105040000746002840D1EB6AC3F804902834264470
:105050005BE032220221284602F0F6FB504F30E09E
:105060002F220221284602F0EFFB504F29E0502268
:105070000221284602F0E8FB4D4F22E043684B45F1
:10508000B5D18368A342B2D1224606F123010C3088
:1050900065F0B4FF0028AAD10C236B60284600F00D
:1050A00077FF82460028B7D050220221284602F01E
:1050B000CBFB574605E02F220221284602F0C4FB15
:1050C000374F3846BDE8F88F2F220221284602F0DC
:1050D000BBFB334FF5E732220221284602F0B4FB36
:1050E0002F4FEEE74FF60172934206D12246311D53
:1050F0002846FFF75FFD00284DD1A8EB0404A4F17A
:1051000004084E44053C022C47D9B8F1000F2ED0BC
:105110003278737843EA0223B278F47844EA0224BE
:1051200004F10409C145D6D8B3F5807F16D0D9DC87
:10513000012B0AD00B2BE0D12246311D2846FFF768
:1051400065FD0028D9D00746BBE72246311D284619
:10515000FFF742FD0028D0D00746B2E72246311DB6
:105160002846FFF72FFE0028C7D00746A9E7D5F845
:10517000D430002BA5D12A6892F84C2002F03002DE
:10518000202A01D01F469CE728220221284602F04F
:105190005BFB034F95E7074693E7014F91E700BF9D
:1051A0008086FFFF0089FFFF8091FFFF808FFFFF58
:1051B000008FFFFF70B50446036BD3F83063012105
:1051C00002F064FD054688B9E36E162B10D1626EBD
:1051D00013780C2B1AD0B37A052B01D0072B0ED1E4
:1051E0000123C4F89830636801336360284670BDBA
:1051F0000A220221204602F027FB144DF6E70A227C
:105200000221204602F020FB104DEFE7236893F8BF
:105210004C3013F0020F15D104211144D4F8903012
:105220001A44B37A0B2B0FD1206B521AD43064F08E
:1052300011F90028D7D02F220221204602F004FBCA
:10524000034DD3E70C21E8E7024DCFE70089FFFFCC
:105250000085FFFF0094FFFF10B584B00446006B8B
:10526000D0F830339B7A0B2B36D1D4F8B4102368A6
:10527000DA6901929B69009303AB4FF43F720431EA
:10528000D43064F0A7F9034610B1184604B010BD3D
:10529000206B2368DA6901929B69009300F54D73D6
:1052A000202200F55E71D43064F0B2FA0346002883
:1052B000EBD1039B0433C4F8BC301623C4F8B830D8
:1052C000D4F8B43010221A7063680133636020464A
:1052D00002F088F90346D8E7004BD6E70094FFFFB9
:1052E00038B54368102B72D00446036B002B70D086
:1052F00001F0FAF8054600BB236893F84C3013F030
:10530000020F04D0236B93F84C32012B0CD063684E
:105310000F2B60D8DFE803F00F13181D22272C3164
:10532000363B40454A4F5457204601F0C3FE0546E0
:105330000028ECD001E001236360284638BD2046F8
:10534000FFF70EFB0546F8E72046FFF763FD05462D
:10535000F3E7204601F054FA0546EEE72046FFF752
:1053600029FF0546E9E72046FFF71EFA0546E4E770
:105370002046FFF7F1FC0546DFE7204601F028FA5A
:105380000546DAE72046FFF767FF0546D5E72046E2
:10539000FFF760FC0546D0E7204602F0C7F9054656
:1053A000CBE7204602F0D2F90546C6E7204602F0D8
:1053B000BFFC0546C1E7204602F0F2FC0546BCE70B
:1053C0000F236360B9E7204601F0CFFBB5E7034D3B
:1053D000B3E7024DB1E7014DAFE700BF008FFFFF1C
:1053E00008B5836C1BB10A468908406C984708BD14
:1053F00008B5C36C2BB1406C9847022803D000203D
:1054000008BD0020FCE74FF0FF30F9E710B4016B56
:10541000D1F848320268546CA34219D2126C9342FC
:1054200003D04FF4FE73A1F8B032016BD1F84832CB
:105430005A00B3EB430F03D803685B6C934201D26D
:1054400003685A6CC1F8482200205DF8044B70478D
:105450004FF0FF30F9E70268036B126CC3F8482283
:1054600070470138032803D8DFE800F00E05080B69
:105470004FF4407070474FF4806070474FF4006005
:1054800070474FF4805070474FF400707047000031
:10549000034B834201D0002070470420704700BFB7
:1054A00099590004426E507A937A1B0243EA0043F2
:1054B000D07A18437047426E9079D3791B0243EA41
:1054C0000043107A1843704730B40023CC08B3EB84
:1054D000D10F04D2C25CFF2A11D10133F6E70023B9
:1054E00001F007029A4208D9025DC3F107052A417B
:1054F00012F0010F07D00133F2E7002001E04FF076
:10550000FF3030BC70474FF0FF30FAE703460C30F5
:1055100031B113F0070218BF012202EBD303184484
:105520007047426E507893781B0243EA0043D0786C
:105530001843704770B50546FFF7F3FF0446284649
:10554000FFF7B9FF06462846FFF7ACFFB44208D381
:10555000A41B844208D30C302B6F984207D800203C
:1055600070BD4FF0FF30FBE74FF0FF30F8E74FF032
:10557000FF30F5E700220023C0E92023C0E9222301
:10558000704700001438C0B2032801D800207047CB
:1055900000487047008EFFFF426FC36F9A4201D8E8
:1055A0000020704701207047036F0BB9002070473F
:1055B00001207047036893F84C3013F0020F18D0A5
:1055C000D0F8A830DA1CC0F8A42003F10B02C0F810
:1055D000AC200D33C0F8B030C1B1C368012B15DD6C
:1055E000D0F8B0304A688968521A1344C0F8B43011
:1055F0007047D0F8A830A3F10802C0F8A420DA1C44
:10560000C0F8AC200533C0F8B030E5E7D0F8B030D2
:10561000C0F8B4307047036893F84C3013F0020FB1
:105620000AD0836DDA1C426503F10B02C2650D33AB
:105630000366036E43667047836DA3F108024265FB
:10564000DA1CC26505330366F3E710B50446036848
:1056500093F84C3013F0020F0DD0D0F8A030C0F802
:10566000A830036D836500212046FFF7A3FF204685
:10567000FFF7D1FF10BDD0F8A0300833C0F8A83034
:10568000036D08338365EEE7036893F84C3013F03D
:10569000010F03D14368013B012B10D9036B4BB1C0
:1056A000B3F8B03233B1B0F8CC0030B1984228BF73
:1056B00018467047B0F8CC00704718467047002075
:1056C000704708B5FFF7E0FF431EB3F5537F01D3E2
:1056D00040F24D3008BD000010B5D0F8C040FFF7D3
:1056E000F0FF844201D8001B10BD0148FCE700BF59
:1056F0000094FFFF10B41468536804604360137A89
:105700000372B2F80930A0F8093093691B0AC3721A
:10571000936903730D230B605DF8044B70470346D8
:10572000816B026BD2F8600281421ED010B582B04C
:105730009863C2F860126A461C4654F8C40F616848
:1057400003C21A6BD2F86402D2F86812C3F8C4001C
:1057500061606C4603CCC2F86402C2F86812996BAF
:105760001846FFF727FF02B010BD7047016B0029F4
:1057700034D043680A2B21D00C2B1FD091F87432FF
:1057800003F00503052B2FD110B5D1F878325C78E2
:105790009A78120242EA0442DB781A430C32B2F5DC
:1057A000407F24D81623C366C0F890200267D1F842
:1057B0007812406E65F030FC002010BD91F8703218
:1057C0007BB11423C36601230367426E1370002369
:1057D0004367C36781F87032184670474FF0FF3057
:1057E00070474FF0FF3070474FF0FF30704701486F
:1057F000E3E700BF0094FFFF70B5066B016F46B191
:10580000044601F10D05C36E162B02D1D6F8A43261
:105810000BB1002070BDD6F86C32C3F50043AB422B
:10582000F7D3B0F878300133C6F8AC32C6F8A852D6
:1058300029460120FDF7DEFDC6F8A4020028E8D0C5
:105840002A46A16D65F0E8FBD6F86C122944C6F82B
:105850006C12DEE72DE9F04F91B0054602910392FC
:105860009B461C9C1D9F05A8FDF78CFB2846FDF759
:1058700075FB002800F088800190FDF7CFFC814681
:1058800005465846FAF7BEFE00EB090A1B9B9A44F0
:1058900051460120FDF7AEFD0646002871D058465E
:1058A000FAF7B0FE804606EB090C02465946E3467D
:1058B000604665F0B1FB09EB08001B9A1A99304469
:1058C00065F0AAFB1B9B98440122019905A8FDF7EE
:1058D00077FB814690B105A8FDF759FB514630464C
:1058E000FDF7A2FD20210DEB0100FDF79DFD3046E7
:1058F000FDF788FD484611B0BDE8F08F039A029984
:1059000005A8FDF781FB4246594605A8FDF7EAFBCD
:10591000314605A8FDF7FAFB4FF0000B0CE02846D6
:105920002DE00BEB030210A9194411F8201CA1541F
:1059300001338342F5D3E346BB45CCD205A8FDF73E
:1059400021FC05EB0802314605A8FDF7CBFB08A9B1
:1059500005A8FDF7DBFB05A8FDF714FC2A46314638
:1059600005A8FDF7BFFB314605A8FDF7CFFB0BEB04
:10597000050CBC45D3D9B7FBF5F005FB107000232F
:10598000D7E7DFF80C90A6E7DFF80890B2E700BF92
:105990000081FFFF0094FFFF10B584B0089C0394C2
:1059A000079C0294069C0194009313460A46014604
:1059B0000620FFF74FFF04B010BD38B5044644B1D0
:1059C000E5682068FDF71EFD2046FDF71BFD2C460F
:1059D000F5E738BD10B5046B74B1D4F8A40258B122
:1059E000D4F8A822D4F86C329B1AC4F86C32FDF7B4
:1059F00009FD0023C4F8A43210BD0000F8B5036B04
:105A0000026892F84C2012F0020F24D0044623B30F
:105A1000D3F8A452D3F8A862D3F8AC72FDB1FFF763
:105A2000BBFD01281DD0B4F87830BB421BD1A06D5E
:105A3000236DC31AC3F553730133B34215D33246F2
:105A4000294665F0E9FA66670025E5672046FFF715
:105A5000C1FF284600E00020F8BD0020FCE7002040
:105A6000FAE70020F8E70020F6E70148F4E700BF76
:105A70000094FFFF38B5044610210120FDF7BAFC61
:105A800048B30546D4F8BC100120FDF7B3FC2860EC
:105A9000C0B1D4F8BC20D4F8B41065F0BDFAD4F885
:105AA000BC306B60D4F8B8302B720023EB60226BF3
:105AB000D2F850325BB11A46DB68002BFBD1D560BF
:105AC000002038BD2846FDF79DFC0448F9E7C2F8E0
:105AD00050520020F5E70148F3E700BF0081FFFFC7
:105AE0002DE9F041A8B004460D46C66A3EB342BB5C
:105AF000DFF8548005A862F0ADFF216B01F52D7130
:105B000005A862F0B5FF20A905A863F069F805A80B
:105B100062F0A4FF236BD3F82C730C23029301953E
:105B20002024009420AB4246302106F12C00B847D7
:105B3000214620A8FDF778FC28B0BDE8F081866AF0
:105B4000D5E7DFF80880D5E764ED060454ED0604D8
:105B500030B59DB005460C4601A862F07BFF296B6D
:105B600001F52D7101A862F083FF214601A863F0C1
